{
  "contractName": "AnyRateOracle",
  "abi": [
    {
      "inputs": [
        {
          "internalType": "address",
          "name": "_link",
          "type": "address"
        }
      ],
      "stateMutability": "nonpayable",
      "type": "constructor"
    },
    {
      "anonymous": false,
      "inputs": [
        {
          "indexed": true,
          "internalType": "bytes32",
          "name": "id",
          "type": "bytes32"
        }
      ],
      "name": "ChainlinkCancelled",
      "type": "event"
    },
    {
      "anonymous": false,
      "inputs": [
        {
          "indexed": true,
          "internalType": "bytes32",
          "name": "id",
          "type": "bytes32"
        }
      ],
      "name": "ChainlinkFulfilled",
      "type": "event"
    },
    {
      "anonymous": false,
      "inputs": [
        {
          "indexed": true,
          "internalType": "bytes32",
          "name": "id",
          "type": "bytes32"
        }
      ],
      "name": "ChainlinkRequested",
      "type": "event"
    },
    {
      "anonymous": false,
      "inputs": [
        {
          "indexed": true,
          "internalType": "address",
          "name": "previousOwner",
          "type": "address"
        },
        {
          "indexed": true,
          "internalType": "address",
          "name": "newOwner",
          "type": "address"
        }
      ],
      "name": "OwnershipTransferred",
      "type": "event"
    },
    {
      "inputs": [],
      "name": "name",
      "outputs": [
        {
          "internalType": "string",
          "name": "",
          "type": "string"
        }
      ],
      "stateMutability": "view",
      "type": "function"
    },
    {
      "inputs": [],
      "name": "owner",
      "outputs": [
        {
          "internalType": "address",
          "name": "",
          "type": "address"
        }
      ],
      "stateMutability": "view",
      "type": "function"
    },
    {
      "inputs": [],
      "name": "renounceOwnership",
      "outputs": [],
      "stateMutability": "nonpayable",
      "type": "function"
    },
    {
      "inputs": [
        {
          "internalType": "address",
          "name": "newOwner",
          "type": "address"
        }
      ],
      "name": "transferOwnership",
      "outputs": [],
      "stateMutability": "nonpayable",
      "type": "function"
    },
    {
      "inputs": [],
      "name": "unitCost",
      "outputs": [
        {
          "internalType": "uint256",
          "name": "",
          "type": "uint256"
        }
      ],
      "stateMutability": "view",
      "type": "function"
    },
    {
      "inputs": [],
      "name": "usage",
      "outputs": [
        {
          "internalType": "uint256",
          "name": "",
          "type": "uint256"
        }
      ],
      "stateMutability": "view",
      "type": "function"
    },
    {
      "inputs": [],
      "name": "getUsage",
      "outputs": [
        {
          "internalType": "uint256",
          "name": "",
          "type": "uint256"
        }
      ],
      "stateMutability": "view",
      "type": "function"
    },
    {
      "inputs": [],
      "name": "getUnitCost",
      "outputs": [
        {
          "internalType": "uint256",
          "name": "",
          "type": "uint256"
        }
      ],
      "stateMutability": "view",
      "type": "function"
    },
    {
      "inputs": [
        {
          "internalType": "address",
          "name": "_oracle",
          "type": "address"
        },
        {
          "internalType": "bytes32",
          "name": "_jobId",
          "type": "bytes32"
        },
        {
          "internalType": "uint256",
          "name": "_payment",
          "type": "uint256"
        },
        {
          "internalType": "string",
          "name": "_url",
          "type": "string"
        },
        {
          "internalType": "string",
          "name": "_path",
          "type": "string"
        },
        {
          "internalType": "int256",
          "name": "_times",
          "type": "int256"
        }
      ],
      "name": "createRequestForUsage",
      "outputs": [
        {
          "internalType": "bytes32",
          "name": "requestId",
          "type": "bytes32"
        }
      ],
      "stateMutability": "nonpayable",
      "type": "function"
    },
    {
      "inputs": [
        {
          "internalType": "bytes32",
          "name": "_requestId",
          "type": "bytes32"
        },
        {
          "internalType": "uint256",
          "name": "_usage",
          "type": "uint256"
        }
      ],
      "name": "fulfillUsage",
      "outputs": [
        {
          "internalType": "uint256",
          "name": "",
          "type": "uint256"
        }
      ],
      "stateMutability": "nonpayable",
      "type": "function"
    },
    {
      "inputs": [
        {
          "internalType": "address",
          "name": "_oracle",
          "type": "address"
        },
        {
          "internalType": "bytes32",
          "name": "_jobId",
          "type": "bytes32"
        },
        {
          "internalType": "uint256",
          "name": "_payment",
          "type": "uint256"
        },
        {
          "internalType": "string",
          "name": "_url",
          "type": "string"
        },
        {
          "internalType": "string",
          "name": "_path",
          "type": "string"
        },
        {
          "internalType": "int256",
          "name": "_times",
          "type": "int256"
        }
      ],
      "name": "createRequestForUnitCost",
      "outputs": [
        {
          "internalType": "bytes32",
          "name": "requestId",
          "type": "bytes32"
        }
      ],
      "stateMutability": "nonpayable",
      "type": "function"
    },
    {
      "inputs": [
        {
          "internalType": "bytes32",
          "name": "_requestId",
          "type": "bytes32"
        },
        {
          "internalType": "uint256",
          "name": "_unitCost",
          "type": "uint256"
        }
      ],
      "name": "fulfillUnitCost",
      "outputs": [
        {
          "internalType": "uint256",
          "name": "",
          "type": "uint256"
        }
      ],
      "stateMutability": "nonpayable",
      "type": "function"
    },
    {
      "inputs": [],
      "name": "getChainlinkToken",
      "outputs": [
        {
          "internalType": "address",
          "name": "",
          "type": "address"
        }
      ],
      "stateMutability": "view",
      "type": "function"
    },
    {
      "inputs": [],
      "name": "withdrawLink",
      "outputs": [],
      "stateMutability": "nonpayable",
      "type": "function"
    },
    {
      "inputs": [
        {
          "internalType": "bytes32",
          "name": "_requestId",
          "type": "bytes32"
        },
        {
          "internalType": "uint256",
          "name": "_payment",
          "type": "uint256"
        },
        {
          "internalType": "bytes4",
          "name": "_callbackFunctionId",
          "type": "bytes4"
        },
        {
          "internalType": "uint256",
          "name": "_expiration",
          "type": "uint256"
        }
      ],
      "name": "cancelRequest",
      "outputs": [],
      "stateMutability": "nonpayable",
      "type": "function"
    }
  ],
  "bytecode": "0x608060405260016004556040518060400160405280600d81526020017f416e79526174654f7261636c65000000000000000000000000000000000000008152506007908051906020019062000056929190620002a7565b503480156200006457600080fd5b506040516200261938038062002619833981810160405260208110156200008a57600080fd5b81019080805190602001909291905050506000620000ad620001b160201b60201c565b905080600660006101000a81548173ffffffffffffffffffffffffffffffffffffffff021916908373ffffffffffffffffffffffffffffffffffffffff1602179055508073ffffffffffffffffffffffffffffffffffffffff16600073ffffffffffffffffffffffffffffffffffffffff167f8be0079c531659141344cd1fd0a4f28419497f9722a3daafe3b4186f6b6457e060405160405180910390a350600073ffffffffffffffffffffffffffffffffffffffff168173ffffffffffffffffffffffffffffffffffffffff161415620001985762000192620001b960201b60201c565b620001aa565b620001a9816200026360201b60201c565b5b5062000356565b600033905090565b6200026173c89bd4e1632d3a43cb03aaad5262cbe4038bc57173ffffffffffffffffffffffffffffffffffffffff166338cc48316040518163ffffffff1660e01b815260040160206040518083038186803b1580156200021857600080fd5b505afa1580156200022d573d6000803e3d6000fd5b505050506040513d60208110156200024457600080fd5b81019080805190602001909291905050506200026360201b60201c565b565b80600260006101000a81548173ffffffffffffffffffffffffffffffffffffffff021916908373ffffffffffffffffffffffffffffffffffffffff16021790555050565b828054600181600116156101000203166002900490600052602060002090601f016020900481019282601f10620002ea57805160ff19168380011785556200031b565b828001600101855582156200031b579182015b828111156200031a578251825591602001919060010190620002fd565b5b5090506200032a91906200032e565b5090565b6200035391905b808211156200034f57600081600090555060010162000335565b5090565b90565b6122b380620003666000396000f3fe608060405234801561001057600080fd5b50600436106100f55760003560e01c80638c10056c11610097578063d700322211610066578063d700322214610613578063de7128ac14610631578063ec65d0f81461067d578063f2fde38b146106e8576100f5565b80638c10056c146103cf5780638da5cb5b146105735780638dc654a2146105bd578063a7698647146105c7576100f5565b806361d047ca116100d357806361d047ca1461036b5780636d811e7114610389578063715018a6146103a75780637a08a45a146103b1576100f5565b806306fdde03146100fa578063165d35e11461017d5780632394ad13146101c7575b600080fd5b61010261072c565b6040518080602001828103825283818151815260200191508051906020019080838360005b83811015610142578082015181840152602081019050610127565b50505050905090810190601f16801561016f5780820380516001836020036101000a031916815260200191505b509250505060405180910390f35b6101856107ca565b604051808273ffffffffffffffffffffffffffffffffffffffff1673ffffffffffffffffffffffffffffffffffffffff16815260200191505060405180910390f35b610355600480360360c08110156101dd57600080fd5b81019080803573ffffffffffffffffffffffffffffffffffffffff16906020019092919080359060200190929190803590602001909291908035906020019064010000000081111561022e57600080fd5b82018360208201111561024057600080fd5b8035906020019184600183028401116401000000008311171561026257600080fd5b91908080601f016020809104026020016040519081016040528093929190818152602001838380828437600081840152601f19601f820116905080830192505050505050509192919290803590602001906401000000008111156102c557600080fd5b8201836020820111156102d757600080fd5b803590602001918460018302840111640100000000831117156102f957600080fd5b91908080601f016020809104026020016040519081016040528093929190818152602001838380828437600081840152601f19601f820116905080830192505050505050509192919290803590602001909291905050506107d9565b6040518082815260200191505060405180910390f35b61037361099c565b6040518082815260200191505060405180910390f35b6103916109a6565b6040518082815260200191505060405180910390f35b6103af6109ac565b005b6103b9610b1c565b6040518082815260200191505060405180910390f35b61055d600480360360c08110156103e557600080fd5b81019080803573ffffffffffffffffffffffffffffffffffffffff16906020019092919080359060200190929190803590602001909291908035906020019064010000000081111561043657600080fd5b82018360208201111561044857600080fd5b8035906020019184600183028401116401000000008311171561046a57600080fd5b91908080601f016020809104026020016040519081016040528093929190818152602001838380828437600081840152601f19601f820116905080830192505050505050509192919290803590602001906401000000008111156104cd57600080fd5b8201836020820111156104df57600080fd5b8035906020019184600183028401116401000000008311171561050157600080fd5b91908080601f016020809104026020016040519081016040528093929190818152602001838380828437600081840152601f19601f82011690508083019250505050505050919291929080359060200190929190505050610b26565b6040518082815260200191505060405180910390f35b61057b610ce9565b604051808273ffffffffffffffffffffffffffffffffffffffff1673ffffffffffffffffffffffffffffffffffffffff16815260200191505060405180910390f35b6105c5610d13565b005b6105fd600480360360408110156105dd57600080fd5b810190808035906020019092919080359060200190929190505050610fbc565b6040518082815260200191505060405180910390f35b61061b6110ec565b6040518082815260200191505060405180910390f35b6106676004803603604081101561064757600080fd5b8101908080359060200190929190803590602001909291905050506110f2565b6040518082815260200191505060405180910390f35b6106e66004803603608081101561069357600080fd5b81019080803590602001909291908035906020019092919080357bffffffffffffffffffffffffffffffffffffffffffffffffffffffff1916906020019092919080359060200190929190505050611222565b005b61072a600480360360208110156106fe57600080fd5b81019080803573ffffffffffffffffffffffffffffffffffffffff1690602001909291905050506112e3565b005b60078054600181600116156101000203166002900480601f0160208091040260200160405190810160405280929190818152602001828054600181600116156101000203166002900480156107c25780601f10610797576101008083540402835291602001916107c2565b820191906000526020600020905b8154815290600101906020018083116107a557829003601f168201915b505050505081565b60006107d46114d8565b905090565b60006107e3611502565b73ffffffffffffffffffffffffffffffffffffffff16610801610ce9565b73ffffffffffffffffffffffffffffffffffffffff161461088a576040517f08c379a00000000000000000000000000000000000000000000000000000000081526004018080602001828103825260208152602001807f4f776e61626c653a2063616c6c6572206973206e6f7420746865206f776e657281525060200191505060405180910390fd5b610892612185565b6108a4873063a769864760e01b61150a565b90506108f06040518060400160405280600381526020017f75726c0000000000000000000000000000000000000000000000000000000000815250868361153b9092919063ffffffff16565b61093a6040518060400160405280600481526020017f7061746800000000000000000000000000000000000000000000000000000000815250858361153b9092919063ffffffff16565b6109846040518060400160405280600581526020017f74696d6573000000000000000000000000000000000000000000000000000000815250848361156e9092919063ffffffff16565b61098f8882886115a1565b9150509695505050505050565b6000600954905090565b60085481565b6109b4611502565b73ffffffffffffffffffffffffffffffffffffffff166109d2610ce9565b73ffffffffffffffffffffffffffffffffffffffff1614610a5b576040517f08c379a00000000000000000000000000000000000000000000000000000000081526004018080602001828103825260208152602001807f4f776e61626c653a2063616c6c6572206973206e6f7420746865206f776e657281525060200191505060405180910390fd5b600073ffffffffffffffffffffffffffffffffffffffff16600660009054906101000a900473ffffffffffffffffffffffffffffffffffffffff1673ffffffffffffffffffffffffffffffffffffffff167f8be0079c531659141344cd1fd0a4f28419497f9722a3daafe3b4186f6b6457e060405160405180910390a36000600660006101000a81548173ffffffffffffffffffffffffffffffffffffffff021916908373ffffffffffffffffffffffffffffffffffffffff160217905550565b6000600854905090565b6000610b30611502565b73ffffffffffffffffffffffffffffffffffffffff16610b4e610ce9565b73ffffffffffffffffffffffffffffffffffffffff1614610bd7576040517f08c379a00000000000000000000000000000000000000000000000000000000081526004018080602001828103825260208152602001807f4f776e61626c653a2063616c6c6572206973206e6f7420746865206f776e657281525060200191505060405180910390fd5b610bdf612185565b610bf1873063de7128ac60e01b61150a565b9050610c3d6040518060400160405280600381526020017f75726c0000000000000000000000000000000000000000000000000000000000815250868361153b9092919063ffffffff16565b610c876040518060400160405280600481526020017f7061746800000000000000000000000000000000000000000000000000000000815250858361153b9092919063ffffffff16565b610cd16040518060400160405280600581526020017f74696d6573000000000000000000000000000000000000000000000000000000815250848361156e9092919063ffffffff16565b610cdc8882886115a1565b9150509695505050505050565b6000600660009054906101000a900473ffffffffffffffffffffffffffffffffffffffff16905090565b610d1b611502565b73ffffffffffffffffffffffffffffffffffffffff16610d39610ce9565b73ffffffffffffffffffffffffffffffffffffffff1614610dc2576040517f08c379a00000000000000000000000000000000000000000000000000000000081526004018080602001828103825260208152602001807f4f776e61626c653a2063616c6c6572206973206e6f7420746865206f776e657281525060200191505060405180910390fd5b6000610dcc6114d8565b90508073ffffffffffffffffffffffffffffffffffffffff1663a9059cbb338373ffffffffffffffffffffffffffffffffffffffff166370a08231306040518263ffffffff1660e01b8152600401808273ffffffffffffffffffffffffffffffffffffffff1673ffffffffffffffffffffffffffffffffffffffff16815260200191505060206040518083038186803b158015610e6857600080fd5b505afa158015610e7c573d6000803e3d6000fd5b505050506040513d6020811015610e9257600080fd5b81019080805190602001909291905050506040518363ffffffff1660e01b8152600401808373ffffffffffffffffffffffffffffffffffffffff1673ffffffffffffffffffffffffffffffffffffffff16815260200182815260200192505050602060405180830381600087803b158015610f0c57600080fd5b505af1158015610f20573d6000803e3d6000fd5b505050506040513d6020811015610f3657600080fd5b8101908080519060200190929190505050610fb9576040517f08c379a00000000000000000000000000000000000000000000000000000000081526004018080602001828103825260128152602001807f556e61626c6520746f207472616e73666572000000000000000000000000000081525060200191505060405180910390fd5b50565b6000826005600082815260200190815260200160002060009054906101000a900473ffffffffffffffffffffffffffffffffffffffff1673ffffffffffffffffffffffffffffffffffffffff163373ffffffffffffffffffffffffffffffffffffffff1614611076576040517f08c379a00000000000000000000000000000000000000000000000000000000081526004018080602001828103825260288152602001806122566028913960400191505060405180910390fd5b6005600082815260200190815260200160002060006101000a81549073ffffffffffffffffffffffffffffffffffffffff0219169055807f7cc135e0cebb02c3480ae5d74d377283180a2601f8f644edf7987b009316c63a60405160405180910390a28260088190555060085491505092915050565b60095481565b6000826005600082815260200190815260200160002060009054906101000a900473ffffffffffffffffffffffffffffffffffffffff1673ffffffffffffffffffffffffffffffffffffffff163373ffffffffffffffffffffffffffffffffffffffff16146111ac576040517f08c379a00000000000000000000000000000000000000000000000000000000081526004018080602001828103825260288152602001806122566028913960400191505060405180910390fd5b6005600082815260200190815260200160002060006101000a81549073ffffffffffffffffffffffffffffffffffffffff0219169055807f7cc135e0cebb02c3480ae5d74d377283180a2601f8f644edf7987b009316c63a60405160405180910390a28260098190555060095491505092915050565b61122a611502565b73ffffffffffffffffffffffffffffffffffffffff16611248610ce9565b73ffffffffffffffffffffffffffffffffffffffff16146112d1576040517f08c379a00000000000000000000000000000000000000000000000000000000081526004018080602001828103825260208152602001807f4f776e61626c653a2063616c6c6572206973206e6f7420746865206f776e657281525060200191505060405180910390fd5b6112dd84848484611859565b50505050565b6112eb611502565b73ffffffffffffffffffffffffffffffffffffffff16611309610ce9565b73ffffffffffffffffffffffffffffffffffffffff1614611392576040517f08c379a00000000000000000000000000000000000000000000000000000000081526004018080602001828103825260208152602001807f4f776e61626c653a2063616c6c6572206973206e6f7420746865206f776e657281525060200191505060405180910390fd5b600073ffffffffffffffffffffffffffffffffffffffff168173ffffffffffffffffffffffffffffffffffffffff161415611418576040517f08c379a000000000000000000000000000000000000000000000000000000000815260040180806020018281038252602681526020018061220d6026913960400191505060405180910390fd5b8073ffffffffffffffffffffffffffffffffffffffff16600660009054906101000a900473ffffffffffffffffffffffffffffffffffffffff1673ffffffffffffffffffffffffffffffffffffffff167f8be0079c531659141344cd1fd0a4f28419497f9722a3daafe3b4186f6b6457e060405160405180910390a380600660006101000a81548173ffffffffffffffffffffffffffffffffffffffff021916908373ffffffffffffffffffffffffffffffffffffffff16021790555050565b6000600260009054906101000a900473ffffffffffffffffffffffffffffffffffffffff16905090565b600033905090565b611512612185565b61151a612185565b611531858585846119bc909392919063ffffffff16565b9150509392505050565b611552828460800151611a6c90919063ffffffff16565b611569818460800151611a6c90919063ffffffff16565b505050565b611585828460800151611a6c90919063ffffffff16565b61159c818460800151611a9190919063ffffffff16565b505050565b600030600454604051602001808373ffffffffffffffffffffffffffffffffffffffff1673ffffffffffffffffffffffffffffffffffffffff1660601b815260140182815260200192505050604051602081830303815290604052805190602001209050600454836060018181525050836005600083815260200190815260200160002060006101000a81548173ffffffffffffffffffffffffffffffffffffffff021916908373ffffffffffffffffffffffffffffffffffffffff160217905550807fb5e6e01e79f91267dc17b4e6314d5d4d03593d2ceee0fbb452b750bd70ea5af960405160405180910390a2600260009054906101000a900473ffffffffffffffffffffffffffffffffffffffff1673ffffffffffffffffffffffffffffffffffffffff16634000aea085846116d987611b35565b6040518463ffffffff1660e01b8152600401808473ffffffffffffffffffffffffffffffffffffffff1673ffffffffffffffffffffffffffffffffffffffff16815260200183815260200180602001828103825283818151815260200191508051906020019080838360005b83811015611760578082015181840152602081019050611745565b50505050905090810190601f16801561178d5780820380516001836020036101000a031916815260200191505b50945050505050602060405180830381600087803b1580156117ae57600080fd5b505af11580156117c2573d6000803e3d6000fd5b505050506040513d60208110156117d857600080fd5b810190808051906020019092919050505061183e576040517f08c379a00000000000000000000000000000000000000000000000000000000081526004018080602001828103825260238152602001806122336023913960400191505060405180910390fd5b60016004600082825401925050819055508090509392505050565b60006005600086815260200190815260200160002060009054906101000a900473ffffffffffffffffffffffffffffffffffffffff1690506005600086815260200190815260200160002060006101000a81549073ffffffffffffffffffffffffffffffffffffffff0219169055847fe1fe3afa0f7f761ff0a8b89086790efd5140d2907ebd5b7ff6bfcb5e075fd4c560405160405180910390a28073ffffffffffffffffffffffffffffffffffffffff16636ee4d553868686866040518563ffffffff1660e01b815260040180858152602001848152602001837bffffffffffffffffffffffffffffffffffffffffffffffffffffffff19167bffffffffffffffffffffffffffffffffffffffffffffffffffffffff19168152602001828152602001945050505050600060405180830381600087803b15801561199d57600080fd5b505af11580156119b1573d6000803e3d6000fd5b505050505050505050565b6119c4612185565b6119d48560800151610100611d01565b508385600001818152505082856020019073ffffffffffffffffffffffffffffffffffffffff16908173ffffffffffffffffffffffffffffffffffffffff16815250508185604001907bffffffffffffffffffffffffffffffffffffffffffffffffffffffff191690817bffffffffffffffffffffffffffffffffffffffffffffffffffffffff191681525050849050949350505050565b611a798260038351611d55565b611a8c8183611e9a90919063ffffffff16565b505050565b7fffffffffffffffffffffffffffffffffffffffffffffffff0000000000000000811215611ac857611ac38282611ebc565b611b31565b67ffffffffffffffff811315611ae757611ae28282611f2a565b611b30565b60008112611b0057611afb82600083611d55565b611b2f565b611b2e826001837fffffffffffffffffffffffffffffffffffffffffffffffffffffffffffffffff03611d55565b5b5b5b5050565b6060634042994660e01b60008084600001518560200151866040015187606001516001896080015160000151604051602401808973ffffffffffffffffffffffffffffffffffffffff1673ffffffffffffffffffffffffffffffffffffffff1681526020018881526020018781526020018673ffffffffffffffffffffffffffffffffffffffff1673ffffffffffffffffffffffffffffffffffffffff168152602001857bffffffffffffffffffffffffffffffffffffffffffffffffffffffff19167bffffffffffffffffffffffffffffffffffffffffffffffffffffffff1916815260200184815260200183815260200180602001828103825283818151815260200191508051906020019080838360005b83811015611c64578082015181840152602081019050611c49565b50505050905090810190601f168015611c915780820380516001836020036101000a031916815260200191505b509950505050505050505050604051602081830303815290604052907bffffffffffffffffffffffffffffffffffffffffffffffffffffffff19166020820180517bffffffffffffffffffffffffffffffffffffffffffffffffffffffff83818316178352505050509050919050565b611d096121f2565b600060208381611d1557fe5b0614611d2e5760208281611d2557fe5b06602003820191505b81836020018181525050604051808452600081528281016020016040525082905092915050565b60178111611d8257611d7c8160058460ff16901b60ff161784611f7690919063ffffffff16565b50611e95565b60ff8111611dc457611da7601860058460ff16901b1784611f7690919063ffffffff16565b50611dbe81600185611f969092919063ffffffff16565b50611e94565b61ffff8111611e0757611dea601960058460ff16901b1784611f7690919063ffffffff16565b50611e0181600285611f969092919063ffffffff16565b50611e93565b63ffffffff8111611e4c57611e2f601a60058460ff16901b1784611f7690919063ffffffff16565b50611e4681600485611f969092919063ffffffff16565b50611e92565b67ffffffffffffffff8111611e9157611e78601b60058460ff16901b1784611f7690919063ffffffff16565b50611e8f81600885611f969092919063ffffffff16565b505b5b5b5b5b505050565b611ea26121f2565b611eb483846000015151848551611fb8565b905092915050565b611eda60036005600660ff16901b1783611f7690919063ffffffff16565b50611f2682827fffffffffffffffffffffffffffffffffffffffffffffffffffffffffffffffff0360405160200180828152602001915050604051602081830303815290604052612071565b5050565b611f4860026005600660ff16901b1783611f7690919063ffffffff16565b50611f72828260405160200180828152602001915050604051602081830303815290604052612071565b5050565b611f7e6121f2565b611f8e8384600001515184612096565b905092915050565b611f9e6121f2565b611faf8485600001515185856120e4565b90509392505050565b611fc06121f2565b8251821115611fce57600080fd5b84602001518285011115611ff957611ff8856002611ff28860200151888701612145565b02612161565b5b6000808651805187602083010193508088870111156120185787860182525b60208701925050505b602084106120445780518252602082019150602081019050602084039350612021565b60006001856020036101000a03905080198251168184511681811785525050879350505050949350505050565b61207e8260028351611d55565b6120918183611e9a90919063ffffffff16565b505050565b61209e6121f2565b836020015183106120bb576120ba846002866020015102612161565b5b83518051602085830101848153818614156120d7576001820183525b5050508390509392505050565b6120ec6121f2565b8460200151848301111561210a5761210985600286850102612161565b5b60006001836101000a03905085518386820101858319825116178152815185880111156121375784870182525b505085915050949350505050565b6000818311156121575782905061215b565b8190505b92915050565b6060826000015190506121748383611d01565b5061217f8382611e9a565b50505050565b6040518060a0016040528060008019168152602001600073ffffffffffffffffffffffffffffffffffffffff16815260200160007bffffffffffffffffffffffffffffffffffffffffffffffffffffffff19168152602001600081526020016121ec6121f2565b81525090565b60405180604001604052806060815260200160008152509056fe4f776e61626c653a206e6577206f776e657220697320746865207a65726f2061646472657373756e61626c6520746f207472616e73666572416e6443616c6c20746f206f7261636c65536f75726365206d75737420626520746865206f7261636c65206f66207468652072657175657374a26469706673582212201b11246529724d6d0b1caa416c425393b2c6f6c817b04d3531ddbc92fb1ca73764736f6c63430006060033",
  "immutableReferences": {},
  "source": "/** This example code is designed to quickly deploy an example contract using Remix.\n *  If you have never used Remix, try our example walkthrough: https://docs.chain.link/docs/example-walkthrough\n *  You will need testnet ETH and LINK.\n *     - Kovan ETH faucet: https://faucet.kovan.network/\n *     - Kovan LINK faucet: https://kovan.chain.link/\n */\n\npragma solidity ^0.6.6;\n\nimport \"@chainlink/contracts/src/v0.6/ChainlinkClient.sol\";\nimport \"@openzeppelin/contracts/access/Ownable.sol\";\n\n/**\n * @title AnyRateOracle is an example contract which requests data from\n * the Chainlink network\n * @dev This contract is designed to work on multiple networks, including\n * local test networks\n */\ncontract AnyRateOracle is ChainlinkClient, Ownable {\n    string public name = \"AnyRateOracle\";\n    uint256 public usage;\n    uint256 public unitCost;\n\n    /**\n     * @notice Deploy the contract with a specified address for the LINK\n     * and Oracle contract addresses\n     * @dev Sets the storage for the specified addresses\n     * @param _link The address of the LINK token contract\n     */\n    constructor(address _link) public {\n        if (_link == address(0)) {\n            setPublicChainlinkToken();\n        } else {\n            setChainlinkToken(_link);\n        }\n    }\n\n    function getUsage() public view returns (uint256) {\n        return usage;\n    }\n\n    function getUnitCost() public view returns (uint256) {\n        return unitCost;\n    }\n\n    /**\n     * @notice Creates a request to the specified Oracle contract address\n     * @dev This function ignores the stored Oracle contract address and\n     * will instead send the request to the address specified\n     * @param _oracle The Oracle contract address to send the request to\n     * @param _jobId The bytes32 JobID to be executed\n     * @param _url The URL to fetch data from\n     * @param _path The dot-delimited path to parse of the response\n     * @param _times The number to multiply the result by\n     */\n    function createRequestForUsage(\n        address _oracle,\n        bytes32 _jobId,\n        uint256 _payment,\n        string memory _url,\n        string memory _path,\n        int256 _times\n    ) public onlyOwner returns (bytes32 requestId) {\n        Chainlink.Request memory req =\n            buildChainlinkRequest(\n                _jobId,\n                address(this),\n                this.fulfillUsage.selector\n            );\n        req.add(\"url\", _url);\n        req.add(\"path\", _path);\n        req.addInt(\"times\", _times);\n        requestId = sendChainlinkRequestTo(_oracle, req, _payment);\n    }\n\n    /**\n     * @notice The fulfill method from requests created by this contract\n     * @dev The recordChainlinkFulfillment protects this function from being called\n     * by anyone other than the oracle address that the request was sent to\n     * @param _requestId The ID that was generated for the request\n     * @param _usage The answer provided by the oracle\n     */\n    function fulfillUsage(bytes32 _requestId, uint256 _usage)\n        public\n        recordChainlinkFulfillment(_requestId)\n        returns (uint256)\n    {\n        usage = _usage;\n        return usage;\n    }\n\n    /**\n     * @notice Creates a request to the specified Oracle contract address\n     * @dev This function ignores the stored Oracle contract address and\n     * will instead send the request to the address specified\n     * @param _oracle The Oracle contract address to send the request to\n     * @param _jobId The bytes32 JobID to be executed\n     * @param _url The URL to fetch data from\n     * @param _path The dot-delimited path to parse of the response\n     * @param _times The number to multiply the result by\n     */\n    function createRequestForUnitCost(\n        address _oracle,\n        bytes32 _jobId,\n        uint256 _payment,\n        string memory _url,\n        string memory _path,\n        int256 _times\n    ) public onlyOwner returns (bytes32 requestId) {\n        Chainlink.Request memory req =\n            buildChainlinkRequest(\n                _jobId,\n                address(this),\n                this.fulfillUnitCost.selector\n            );\n        req.add(\"url\", _url);\n        req.add(\"path\", _path);\n        req.addInt(\"times\", _times);\n        requestId = sendChainlinkRequestTo(_oracle, req, _payment);\n    }\n\n    /**\n     * @notice The fulfill method from requests created by this contract\n     * @dev The recordChainlinkFulfillment protects this function from being called\n     * by anyone other than the oracle address that the request was sent to\n     * @param _requestId The ID that was generated for the request\n     * @param _unitCost The answer provided by the oracle\n     */\n    function fulfillUnitCost(bytes32 _requestId, uint256 _unitCost)\n        public\n        recordChainlinkFulfillment(_requestId)\n        returns (uint256)\n    {\n        unitCost = _unitCost;\n        return unitCost;\n    }\n\n    /**\n     * @notice Returns the address of the LINK token\n     * @dev This is the public implementation for chainlinkTokenAddress, which is\n     * an internal method of the ChainlinkClient contract\n     */\n    function getChainlinkToken() public view returns (address) {\n        return chainlinkTokenAddress();\n    }\n\n    /**\n     * @notice Allows the owner to withdraw any LINK balance on the contract\n     */\n    function withdrawLink() public onlyOwner {\n        LinkTokenInterface link = LinkTokenInterface(chainlinkTokenAddress());\n        require(\n            link.transfer(msg.sender, link.balanceOf(address(this))),\n            \"Unable to transfer\"\n        );\n    }\n\n    /**\n     * @notice Call this method if no response is received within 5 minutes\n     * @param _requestId The ID that was generated for the request to cancel\n     * @param _payment The payment specified for the request to cancel\n     * @param _callbackFunctionId The bytes4 callback function ID specified for\n     * the request to cancel\n     * @param _expiration The expiration generated for the request to cancel\n     */\n    function cancelRequest(\n        bytes32 _requestId,\n        uint256 _payment,\n        bytes4 _callbackFunctionId,\n        uint256 _expiration\n    ) public onlyOwner {\n        cancelChainlinkRequest(\n            _requestId,\n            _payment,\n            _callbackFunctionId,\n            _expiration\n        );\n    }\n}\n",
  "sourcePath": "/Users/macuser/Documents/Projects/Programming/ChainlinkHackathon/AnyRate/contracts/AnyRateOracle.sol",
  "compiler": {
    "name": "solc",
    "version": "0.6.6+commit.6c089d02.Emscripten.clang"
  },
  "schemaVersion": "3.3.4",
  "updatedAt": "2021-03-27T07:50:31.320Z",
  "devdoc": {
    "details": "This contract is designed to work on multiple networks, including local test networks",
    "methods": {
      "cancelRequest(bytes32,uint256,bytes4,uint256)": {
        "params": {
          "_callbackFunctionId": "The bytes4 callback function ID specified for the request to cancel",
          "_expiration": "The expiration generated for the request to cancel",
          "_payment": "The payment specified for the request to cancel",
          "_requestId": "The ID that was generated for the request to cancel"
        }
      },
      "constructor": {
        "details": "Sets the storage for the specified addresses",
        "params": {
          "_link": "The address of the LINK token contract"
        }
      },
      "createRequestForUnitCost(address,bytes32,uint256,string,string,int256)": {
        "details": "This function ignores the stored Oracle contract address and will instead send the request to the address specified",
        "params": {
          "_jobId": "The bytes32 JobID to be executed",
          "_oracle": "The Oracle contract address to send the request to",
          "_path": "The dot-delimited path to parse of the response",
          "_times": "The number to multiply the result by",
          "_url": "The URL to fetch data from"
        }
      },
      "createRequestForUsage(address,bytes32,uint256,string,string,int256)": {
        "details": "This function ignores the stored Oracle contract address and will instead send the request to the address specified",
        "params": {
          "_jobId": "The bytes32 JobID to be executed",
          "_oracle": "The Oracle contract address to send the request to",
          "_path": "The dot-delimited path to parse of the response",
          "_times": "The number to multiply the result by",
          "_url": "The URL to fetch data from"
        }
      },
      "fulfillUnitCost(bytes32,uint256)": {
        "details": "The recordChainlinkFulfillment protects this function from being called by anyone other than the oracle address that the request was sent to",
        "params": {
          "_requestId": "The ID that was generated for the request",
          "_unitCost": "The answer provided by the oracle"
        }
      },
      "fulfillUsage(bytes32,uint256)": {
        "details": "The recordChainlinkFulfillment protects this function from being called by anyone other than the oracle address that the request was sent to",
        "params": {
          "_requestId": "The ID that was generated for the request",
          "_usage": "The answer provided by the oracle"
        }
      },
      "getChainlinkToken()": {
        "details": "This is the public implementation for chainlinkTokenAddress, which is an internal method of the ChainlinkClient contract"
      },
      "owner()": {
        "details": "Returns the address of the current owner."
      },
      "renounceOwnership()": {
        "details": "Leaves the contract without owner. It will not be possible to call `onlyOwner` functions anymore. Can only be called by the current owner.     * NOTE: Renouncing ownership will leave the contract without an owner, thereby removing any functionality that is only available to the owner."
      },
      "transferOwnership(address)": {
        "details": "Transfers ownership of the contract to a new account (`newOwner`). Can only be called by the current owner."
      }
    },
    "title": "AnyRateOracle is an example contract which requests data from the Chainlink network"
  },
  "userdoc": {
    "methods": {
      "cancelRequest(bytes32,uint256,bytes4,uint256)": {
        "notice": "Call this method if no response is received within 5 minutes"
      },
      "constructor": "Deploy the contract with a specified address for the LINK and Oracle contract addresses",
      "createRequestForUnitCost(address,bytes32,uint256,string,string,int256)": {
        "notice": "Creates a request to the specified Oracle contract address"
      },
      "createRequestForUsage(address,bytes32,uint256,string,string,int256)": {
        "notice": "Creates a request to the specified Oracle contract address"
      },
      "fulfillUnitCost(bytes32,uint256)": {
        "notice": "The fulfill method from requests created by this contract"
      },
      "fulfillUsage(bytes32,uint256)": {
        "notice": "The fulfill method from requests created by this contract"
      },
      "getChainlinkToken()": {
        "notice": "Returns the address of the LINK token"
      },
      "withdrawLink()": {
        "notice": "Allows the owner to withdraw any LINK balance on the contract"
      }
    }
  }
}