{
  "contractName": "Billing",
  "abi": [
    {
      "inputs": [
        {
          "internalType": "contract Treasury",
          "name": "_companyTreasury",
          "type": "address"
        },
        {
          "internalType": "contract Treasury",
          "name": "_anyRateTreasury",
          "type": "address"
        },
        {
          "internalType": "uint256",
          "name": "_anyRateFee",
          "type": "uint256"
        }
      ],
      "stateMutability": "nonpayable",
      "type": "constructor"
    },
    {
      "inputs": [],
      "name": "billableAccounts",
      "outputs": [
        {
          "internalType": "contract BillableAccounts",
          "name": "",
          "type": "address"
        }
      ],
      "stateMutability": "view",
      "type": "function"
    },
    {
      "inputs": [
        {
          "internalType": "address",
          "name": "_billableAccounts",
          "type": "address"
        }
      ],
      "name": "setBillableAccounts",
      "outputs": [],
      "stateMutability": "nonpayable",
      "type": "function"
    },
    {
      "inputs": [
        {
          "internalType": "string",
          "name": "account",
          "type": "string"
        },
        {
          "internalType": "uint256",
          "name": "payment",
          "type": "uint256"
        },
        {
          "internalType": "uint256",
          "name": "fee",
          "type": "uint256"
        }
      ],
      "name": "requestBill",
      "outputs": [],
      "stateMutability": "nonpayable",
      "type": "function"
    }
  ],
  "bytecode": "0x608060405234801561001057600080fd5b506040516103ac3803806103ac8339818101604052606081101561003357600080fd5b81019080805190602001909291908051906020019092919080519060200190929190505050826000806101000a81548173ffffffffffffffffffffffffffffffffffffffff021916908373ffffffffffffffffffffffffffffffffffffffff16021790555081600160006101000a81548173ffffffffffffffffffffffffffffffffffffffff021916908373ffffffffffffffffffffffffffffffffffffffff160217905550806003819055505050506102ba806100f26000396000f3fe608060405234801561001057600080fd5b50600436106100415760003560e01c80632325ad941461004657806381b262ef1461007a578063c32a372814610107575b600080fd5b61004e61014b565b604051808273ffffffffffffffffffffffffffffffffffffffff16815260200191505060405180910390f35b6101056004803603606081101561009057600080fd5b81019080803590602001906401000000008111156100ad57600080fd5b8201836020820111156100bf57600080fd5b803590602001918460018302840111640100000000831117156100e157600080fd5b90919293919293908035906020019092919080359060200190929190505050610171565b005b6101496004803603602081101561011d57600080fd5b81019080803573ffffffffffffffffffffffffffffffffffffffff169060200190929190505050610240565b005b600260009054906101000a900473ffffffffffffffffffffffffffffffffffffffff1681565b600260009054906101000a900473ffffffffffffffffffffffffffffffffffffffff1673ffffffffffffffffffffffffffffffffffffffff1663229e6d0e858585856040518563ffffffff1660e01b815260040180806020018481526020018381526020018281038252868682818152602001925080828437600081840152601f19601f82011690508083019250505095505050505050600060405180830381600087803b15801561022257600080fd5b505af1158015610236573d6000803e3d6000fd5b5050505050505050565b80600260006101000a81548173ffffffffffffffffffffffffffffffffffffffff021916908373ffffffffffffffffffffffffffffffffffffffff1602179055505056fea26469706673582212206ce0f15018216d39063546170e9b530ea8e18a3a949806d7da985950aa1c35ec64736f6c63430007060033",
  "immutableReferences": {},
  "source": "// SPDX-License-Identifier: UNLICENSED\npragma solidity ^0.7.6;\n\nimport './BillableAccounts.sol';\nimport './Treasury.sol';\n\ncontract Billing {\n  Treasury companyTreasury;\n  Treasury anyRateTreasury;\n  BillableAccounts public billableAccounts;\n  uint256 anyRateFee;\n\n  string[] accounts;\n\n  constructor(Treasury _companyTreasury, Treasury _anyRateTreasury, uint256 _anyRateFee) {\n    companyTreasury = _companyTreasury;\n    anyRateTreasury = _anyRateTreasury;\n    anyRateFee = _anyRateFee;\n  }\n\n  function setBillableAccounts(address _billableAccounts) public {\n    billableAccounts = BillableAccounts(_billableAccounts);\n  }\n\n  // TODO: figure out how much they owe\n\n  function requestBill(string calldata account, uint256 payment, uint256 fee) public {\n    billableAccounts.bill(account, payment, fee);\n  }\n\n  // collect from everyone\n  // function billAll() public {\n  //   for (uint i = 0; i < accounts.length; i++) {\n  //   }\n  // }\n}",
  "sourcePath": "/Users/macuser/Documents/Projects/Programming/ChainlinkHackathon/AnyRate/contracts/Billing.sol",
  "compiler": {
    "name": "solc",
    "version": "0.7.6+commit.7338295f.Emscripten.clang"
  },
  "schemaVersion": "3.3.4",
  "updatedAt": "2021-03-27T07:38:12.068Z",
  "devdoc": {
    "kind": "dev",
    "methods": {},
    "version": 1
  },
  "userdoc": {
    "kind": "user",
    "methods": {},
    "version": 1
  }
}