{
  "contractName": "Billing",
  "abi": [
    {
      "inputs": [
        {
          "internalType": "address payable",
          "name": "_clientTreasury",
          "type": "address"
        },
        {
          "internalType": "address payable",
          "name": "_anyRateTreasury",
          "type": "address"
        },
        {
          "internalType": "uint64",
          "name": "_anyRateFee",
          "type": "uint64"
        }
      ],
      "stateMutability": "nonpayable",
      "type": "constructor"
    },
    {
      "anonymous": false,
      "inputs": [
        {
          "indexed": false,
          "internalType": "address",
          "name": "from",
          "type": "address"
        },
        {
          "indexed": false,
          "internalType": "bytes32",
          "name": "to",
          "type": "bytes32"
        },
        {
          "indexed": false,
          "internalType": "uint256",
          "name": "value",
          "type": "uint256"
        }
      ],
      "name": "Deposit",
      "type": "event"
    },
    {
      "anonymous": false,
      "inputs": [
        {
          "indexed": false,
          "internalType": "bytes32",
          "name": "account",
          "type": "bytes32"
        },
        {
          "indexed": false,
          "internalType": "uint256",
          "name": "funds",
          "type": "uint256"
        }
      ],
      "name": "InsufficientFunds",
      "type": "event"
    },
    {
      "anonymous": false,
      "inputs": [
        {
          "indexed": true,
          "internalType": "address",
          "name": "previousOwner",
          "type": "address"
        },
        {
          "indexed": true,
          "internalType": "address",
          "name": "newOwner",
          "type": "address"
        }
      ],
      "name": "OwnershipTransferred",
      "type": "event"
    },
    {
      "anonymous": false,
      "inputs": [
        {
          "indexed": false,
          "internalType": "bytes32",
          "name": "from",
          "type": "bytes32"
        },
        {
          "indexed": false,
          "internalType": "address",
          "name": "to",
          "type": "address"
        },
        {
          "indexed": false,
          "internalType": "uint256",
          "name": "value",
          "type": "uint256"
        }
      ],
      "name": "Transfer",
      "type": "event"
    },
    {
      "inputs": [
        {
          "internalType": "bytes32",
          "name": "",
          "type": "bytes32"
        }
      ],
      "name": "accountBalances",
      "outputs": [
        {
          "internalType": "uint256",
          "name": "",
          "type": "uint256"
        }
      ],
      "stateMutability": "view",
      "type": "function"
    },
    {
      "inputs": [],
      "name": "anyRateFee",
      "outputs": [
        {
          "internalType": "uint64",
          "name": "",
          "type": "uint64"
        }
      ],
      "stateMutability": "view",
      "type": "function"
    },
    {
      "inputs": [],
      "name": "costPerUnit",
      "outputs": [
        {
          "internalType": "uint64",
          "name": "",
          "type": "uint64"
        }
      ],
      "stateMutability": "view",
      "type": "function"
    },
    {
      "inputs": [],
      "name": "owner",
      "outputs": [
        {
          "internalType": "address",
          "name": "",
          "type": "address"
        }
      ],
      "stateMutability": "view",
      "type": "function"
    },
    {
      "inputs": [],
      "name": "renounceOwnership",
      "outputs": [],
      "stateMutability": "nonpayable",
      "type": "function"
    },
    {
      "inputs": [
        {
          "internalType": "address",
          "name": "newOwner",
          "type": "address"
        }
      ],
      "name": "transferOwnership",
      "outputs": [],
      "stateMutability": "nonpayable",
      "type": "function"
    },
    {
      "inputs": [],
      "name": "callChainlink",
      "outputs": [],
      "stateMutability": "nonpayable",
      "type": "function"
    },
    {
      "inputs": [
        {
          "internalType": "bytes32[]",
          "name": "accounts",
          "type": "bytes32[]"
        },
        {
          "internalType": "uint64[]",
          "name": "usages",
          "type": "uint64[]"
        }
      ],
      "name": "usageCallback",
      "outputs": [],
      "stateMutability": "nonpayable",
      "type": "function"
    },
    {
      "inputs": [
        {
          "internalType": "address payable",
          "name": "treasury",
          "type": "address"
        }
      ],
      "name": "setAnyRateTreasury",
      "outputs": [],
      "stateMutability": "nonpayable",
      "type": "function"
    },
    {
      "inputs": [
        {
          "internalType": "uint64",
          "name": "_anyRateFee",
          "type": "uint64"
        }
      ],
      "name": "setFee",
      "outputs": [],
      "stateMutability": "nonpayable",
      "type": "function"
    },
    {
      "inputs": [
        {
          "internalType": "address payable",
          "name": "treasury",
          "type": "address"
        }
      ],
      "name": "setBusinessTreasury",
      "outputs": [],
      "stateMutability": "nonpayable",
      "type": "function"
    },
    {
      "inputs": [
        {
          "internalType": "uint64",
          "name": "_costPerUnit",
          "type": "uint64"
        }
      ],
      "name": "setCostPerUnit",
      "outputs": [],
      "stateMutability": "nonpayable",
      "type": "function"
    },
    {
      "inputs": [
        {
          "internalType": "bytes32",
          "name": "account",
          "type": "bytes32"
        }
      ],
      "name": "depositTo",
      "outputs": [],
      "stateMutability": "payable",
      "type": "function"
    },
    {
      "inputs": [
        {
          "internalType": "bytes32",
          "name": "account",
          "type": "bytes32"
        },
        {
          "internalType": "uint128",
          "name": "payment",
          "type": "uint128"
        },
        {
          "internalType": "uint256",
          "name": "fee",
          "type": "uint256"
        }
      ],
      "name": "bill",
      "outputs": [],
      "stateMutability": "nonpayable",
      "type": "function"
    }
  ],
  "bytecode": "0x608060405234801561001057600080fd5b5060405161105b38038061105b8339818101604052606081101561003357600080fd5b8101908080519060200190929190805190602001909291908051906020019092919050505060006100716101c2640100000000026401000000009004565b9050806000806101000a81548173ffffffffffffffffffffffffffffffffffffffff021916908373ffffffffffffffffffffffffffffffffffffffff1602179055508073ffffffffffffffffffffffffffffffffffffffff16600073ffffffffffffffffffffffffffffffffffffffff167f8be0079c531659141344cd1fd0a4f28419497f9722a3daafe3b4186f6b6457e060405160405180910390a35082600160006101000a81548173ffffffffffffffffffffffffffffffffffffffff021916908373ffffffffffffffffffffffffffffffffffffffff16021790555081600260006101000a81548173ffffffffffffffffffffffffffffffffffffffff021916908373ffffffffffffffffffffffffffffffffffffffff16021790555080600260146101000a81548167ffffffffffffffff021916908367ffffffffffffffff1602179055505050506101ca565b600033905090565b610e82806101d96000396000f3fe6080604052600436106100fa576000357c0100000000000000000000000000000000000000000000000000000000900480637249bb6e1161009c578063cae5955e11610076578063cae5955e146104cf578063d1bd6b8414610520578063f2fde38b14610537578063fe6a7b4814610588576100fa565b80637249bb6e146103d85780638da5cb5b14610429578063966c08ee14610480576100fa565b8063510b13d8116100d8578063510b13d8146102dc578063518c0f5d1461033d5780635a630d7a1461037c578063715018a6146103c1576100fa565b8063332df3bf146100ff57806334eaea431461013e5780634428967a14610297575b600080fd5b34801561010b57600080fd5b506101146105b6565b604051808267ffffffffffffffff1667ffffffffffffffff16815260200191505060405180910390f35b34801561014a57600080fd5b506102956004803603604081101561016157600080fd5b810190808035906020019064010000000081111561017e57600080fd5b82018360208201111561019057600080fd5b803590602001918460208302840111640100000000831117156101b257600080fd5b919080806020026020016040519081016040528093929190818152602001838360200280828437600081840152601f19601f8201169050808301925050505050505091929192908035906020019064010000000081111561021257600080fd5b82018360208201111561022457600080fd5b8035906020019184602083028401116401000000008311171561024657600080fd5b919080806020026020016040519081016040528093929190818152602001838360200280828437600081840152601f19601f8201169050808301925050505050505091929192905050506105d0565b005b3480156102a357600080fd5b506102da600480360360208110156102ba57600080fd5b81019080803567ffffffffffffffff1690602001909291905050506105d4565b005b3480156102e857600080fd5b5061033b600480360360608110156102ff57600080fd5b810190808035906020019092919080356fffffffffffffffffffffffffffffffff16906020019092919080359060200190929190505050610600565b005b34801561034957600080fd5b506103526108e1565b604051808267ffffffffffffffff1667ffffffffffffffff16815260200191505060405180910390f35b34801561038857600080fd5b506103bf6004803603602081101561039f57600080fd5b81019080803567ffffffffffffffff1690602001909291905050506108fb565b005b3480156103cd57600080fd5b506103d6610927565b005b3480156103e457600080fd5b50610427600480360360208110156103fb57600080fd5b81019080803573ffffffffffffffffffffffffffffffffffffffff169060200190929190505050610aaf565b005b34801561043557600080fd5b5061043e610af3565b604051808273ffffffffffffffffffffffffffffffffffffffff1673ffffffffffffffffffffffffffffffffffffffff16815260200191505060405180910390f35b34801561048c57600080fd5b506104b9600480360360208110156104a357600080fd5b8101908080359060200190929190505050610b1c565b6040518082815260200191505060405180910390f35b3480156104db57600080fd5b5061051e600480360360208110156104f257600080fd5b81019080803573ffffffffffffffffffffffffffffffffffffffff169060200190929190505050610b34565b005b34801561052c57600080fd5b50610535610b78565b005b34801561054357600080fd5b506105866004803603602081101561055a57600080fd5b81019080803573ffffffffffffffffffffffffffffffffffffffff169060200190929190505050610b7a565b005b6105b46004803603602081101561059e57600080fd5b8101908080359060200190929190505050610d87565b005b600360009054906101000a900467ffffffffffffffff1681565b5050565b80600360006101000a81548167ffffffffffffffff021916908367ffffffffffffffff16021790555050565b80826fffffffffffffffffffffffffffffffff160160046000858152602001908152602001600020541015610686577f6039fb6c277c6b2b274b3613b64086146509fa9d66283cea741005d80e1eb855836004600086815260200190815260200160002054604051808381526020018281526020019250505060405180910390a16108dc565b80826fffffffffffffffffffffffffffffffff16016004600085815260200190815260200160002060008282540392505081905550600160009054906101000a900473ffffffffffffffffffffffffffffffffffffffff1673ffffffffffffffffffffffffffffffffffffffff166108fc836fffffffffffffffffffffffffffffffff169081150290604051600060405180830381858888f19350505050158015610735573d6000803e3d6000fd5b507f4c13017ee95afc4bbd8a701dd9fbc9733f1f09f5a1b5438b5b9abd48e4c92d7883600160009054906101000a900473ffffffffffffffffffffffffffffffffffffffff1684604051808481526020018373ffffffffffffffffffffffffffffffffffffffff1673ffffffffffffffffffffffffffffffffffffffff168152602001826fffffffffffffffffffffffffffffffff168152602001935050505060405180910390a1600260009054906101000a900473ffffffffffffffffffffffffffffffffffffffff1673ffffffffffffffffffffffffffffffffffffffff166108fc829081150290604051600060405180830381858888f19350505050158015610845573d6000803e3d6000fd5b507f4c13017ee95afc4bbd8a701dd9fbc9733f1f09f5a1b5438b5b9abd48e4c92d7883600260009054906101000a900473ffffffffffffffffffffffffffffffffffffffff1683604051808481526020018373ffffffffffffffffffffffffffffffffffffffff1673ffffffffffffffffffffffffffffffffffffffff168152602001828152602001935050505060405180910390a15b505050565b600260149054906101000a900467ffffffffffffffff1681565b80600260146101000a81548167ffffffffffffffff021916908367ffffffffffffffff16021790555050565b61092f610e1e565b73ffffffffffffffffffffffffffffffffffffffff166000809054906101000a900473ffffffffffffffffffffffffffffffffffffffff1673ffffffffffffffffffffffffffffffffffffffff16146109f0576040517f08c379a00000000000000000000000000000000000000000000000000000000081526004018080602001828103825260208152602001807f4f776e61626c653a2063616c6c6572206973206e6f7420746865206f776e657281525060200191505060405180910390fd5b600073ffffffffffffffffffffffffffffffffffffffff166000809054906101000a900473ffffffffffffffffffffffffffffffffffffffff1673ffffffffffffffffffffffffffffffffffffffff167f8be0079c531659141344cd1fd0a4f28419497f9722a3daafe3b4186f6b6457e060405160405180910390a360008060006101000a81548173ffffffffffffffffffffffffffffffffffffffff021916908373ffffffffffffffffffffffffffffffffffffffff160217905550565b80600260006101000a81548173ffffffffffffffffffffffffffffffffffffffff021916908373ffffffffffffffffffffffffffffffffffffffff16021790555050565b60008060009054906101000a900473ffffffffffffffffffffffffffffffffffffffff16905090565b60046020528060005260406000206000915090505481565b80600160006101000a81548173ffffffffffffffffffffffffffffffffffffffff021916908373ffffffffffffffffffffffffffffffffffffffff16021790555050565b565b610b82610e1e565b73ffffffffffffffffffffffffffffffffffffffff166000809054906101000a900473ffffffffffffffffffffffffffffffffffffffff1673ffffffffffffffffffffffffffffffffffffffff1614610c43576040517f08c379a00000000000000000000000000000000000000000000000000000000081526004018080602001828103825260208152602001807f4f776e61626c653a2063616c6c6572206973206e6f7420746865206f776e657281525060200191505060405180910390fd5b600073ffffffffffffffffffffffffffffffffffffffff168173ffffffffffffffffffffffffffffffffffffffff161415610cc9576040517f08c379a0000000000000000000000000000000000000000000000000000000008152600401808060200182810382526026815260200180610e276026913960400191505060405180910390fd5b8073ffffffffffffffffffffffffffffffffffffffff166000809054906101000a900473ffffffffffffffffffffffffffffffffffffffff1673ffffffffffffffffffffffffffffffffffffffff167f8be0079c531659141344cd1fd0a4f28419497f9722a3daafe3b4186f6b6457e060405160405180910390a3806000806101000a81548173ffffffffffffffffffffffffffffffffffffffff021916908373ffffffffffffffffffffffffffffffffffffffff16021790555050565b3460046000838152602001908152602001600020600082825401925050819055507f19dacbf83c5de6658e14cbf7bcae5c15eca2eedecf1c66fbca928e4d351bea0f338234604051808473ffffffffffffffffffffffffffffffffffffffff1673ffffffffffffffffffffffffffffffffffffffff168152602001838152602001828152602001935050505060405180910390a150565b60003390509056fe4f776e61626c653a206e6577206f776e657220697320746865207a65726f2061646472657373a26469706673582212200459b2e4a4d92f60cd3ddb14b0d815bcaacd24bd2996e58cb77873226ddad4a164736f6c63430006060033",
  "immutableReferences": {},
  "source": "// SPDX-License-Identifier: UNLICENSED\npragma solidity ^0.6.6;\n\nimport \"@openzeppelin/contracts/access/Ownable.sol\";\nimport './Treasury.sol';\n\ncontract Billing is Ownable {\n  address payable clientTreasury;\n  address payable anyRateTreasury;\n  uint64 public anyRateFee; // between 0.00 and 1.00 in regular decimal\n  uint64 public costPerUnit; // greater than 0\n\n  mapping(bytes32 => uint256) public accountBalances; // Tracks who deposited how much value\n\n  event Deposit(address from, bytes32 to, uint256 value);\n  event Transfer(bytes32 from, address to, uint256 value);\n  event InsufficientFunds(bytes32 account, uint256 funds);\n\n  constructor(address payable _clientTreasury, address payable _anyRateTreasury, uint64 _anyRateFee) public {\n    clientTreasury = _clientTreasury;\n    anyRateTreasury = _anyRateTreasury;\n    anyRateFee = _anyRateFee;\n  }\n\n  // chainlink method gets data from oracle contract\n  // calls back a method that will bill users\n  // provides usage per user for <time period>\n      // frequency of calling the oracle is set in configuration during sign up, and updateable\n  function callChainlink() public {\n    // Jan to implement this\n  }\n\n  // public or external?\n  function usageCallback(bytes32[] memory accounts, uint64[] memory usages) public {\n    // iterate over accountUsage and bill each one\n    // iterate over accountUsage while deducting from each account, but send payouts in 2 large transactions\n      // risk of this? what if aborted? revert safe?\n  }\n\n  /////\n  // AnyRate\n\n  function setAnyRateTreasury(address payable treasury) public {\n    // how to verify this address is of the correct type?\n    anyRateTreasury = treasury;\n  }\n  function setFee(uint64 _anyRateFee) public {\n    anyRateFee = _anyRateFee;\n  }\n\n  /////\n  // Client Business\n\n  function setBusinessTreasury(address payable treasury) public {\n    // how to verify this address is of the correct type?\n    clientTreasury = treasury;\n  }\n  function setCostPerUnit(uint64 _costPerUnit) public {\n    costPerUnit = _costPerUnit;\n  }\n\n  /////\n  // User Accounts\n\n  // Send value to this contract on behalf of an account\n  function depositTo(bytes32 account) public payable {\n    accountBalances[account] += msg.value;\n    emit Deposit(msg.sender, account, msg.value);\n  }\n\n  /////\n  // Billing\n\n  // Figure out how much is owed each party\n  function calculatePayment(uint64 usage) internal view\n  returns (uint128 payment) {\n    payment = usage * costPerUnit;\n  }\n  function calculateFee(uint128 payment) internal view\n  returns (uint256 fee) {\n    fee = payment / anyRateFee;\n  }\n\n  // Pay treasuries specified amounts\n  function bill(bytes32 account, uint128 payment, uint256 fee) public {\n    // require(msg.sender == address(this), 'Only the billing contract may bill users');\n    if(accountBalances[account] < (payment + fee)) {\n      emit InsufficientFunds(account, accountBalances[account]);\n    } else {\n      accountBalances[account] -= (payment + fee);\n      clientTreasury.transfer(payment);\n      emit Transfer(account, clientTreasury, payment);\n      anyRateTreasury.transfer(fee);\n      emit Transfer(account, anyRateTreasury, fee);\n    }\n  }\n\n  // collect from everyone\n  // call this inside the callback from the oracle for cleaner code?\n  // function billAll() public {\n  //   for (uint i = 0; i < accountBalances.length; i++) {\n  //     uint128 payment = this.calculatePayment(usage);\n  //     uint256 fee = this.calculateFee(payment);\n  //     this.bill(accounts[i], payment, fee);\n  //   }\n  // }\n}",
  "sourcePath": "/Users/macuser/Documents/Projects/Programming/ChainlinkHackathon/AnyRate/contracts/Billing.sol",
  "compiler": {
    "name": "solc",
    "version": "0.6.6+commit.6c089d02.Emscripten.clang"
  },
  "schemaVersion": "3.3.4",
  "updatedAt": "2021-03-27T08:17:34.223Z",
  "devdoc": {
    "methods": {
      "owner()": {
        "details": "Returns the address of the current owner."
      },
      "renounceOwnership()": {
        "details": "Leaves the contract without owner. It will not be possible to call `onlyOwner` functions anymore. Can only be called by the current owner.     * NOTE: Renouncing ownership will leave the contract without an owner, thereby removing any functionality that is only available to the owner."
      },
      "transferOwnership(address)": {
        "details": "Transfers ownership of the contract to a new account (`newOwner`). Can only be called by the current owner."
      }
    }
  },
  "userdoc": {
    "methods": {
      "depositTo(bytes32)": {
        "notice": "//"
      },
      "setAnyRateTreasury(address)": {
        "notice": "//"
      },
      "setBusinessTreasury(address)": {
        "notice": "//"
      }
    }
  }
}