{
  "contractName": "BillableAccounts",
  "abi": [
    {
      "inputs": [
        {
          "internalType": "address payable",
          "name": "_companyTreasury",
          "type": "address"
        },
        {
          "internalType": "address payable",
          "name": "_anyRateTreasury",
          "type": "address"
        }
      ],
      "stateMutability": "nonpayable",
      "type": "constructor"
    },
    {
      "anonymous": false,
      "inputs": [
        {
          "indexed": false,
          "internalType": "address",
          "name": "requester",
          "type": "address"
        }
      ],
      "name": "BillRequested",
      "type": "event"
    },
    {
      "anonymous": false,
      "inputs": [
        {
          "indexed": false,
          "internalType": "address",
          "name": "from",
          "type": "address"
        },
        {
          "indexed": false,
          "internalType": "string",
          "name": "to",
          "type": "string"
        },
        {
          "indexed": false,
          "internalType": "uint256",
          "name": "value",
          "type": "uint256"
        }
      ],
      "name": "Deposit",
      "type": "event"
    },
    {
      "anonymous": false,
      "inputs": [
        {
          "indexed": false,
          "internalType": "string",
          "name": "account",
          "type": "string"
        },
        {
          "indexed": false,
          "internalType": "uint256",
          "name": "funds",
          "type": "uint256"
        }
      ],
      "name": "InsufficientFunds",
      "type": "event"
    },
    {
      "anonymous": false,
      "inputs": [
        {
          "indexed": false,
          "internalType": "string",
          "name": "from",
          "type": "string"
        },
        {
          "indexed": false,
          "internalType": "address",
          "name": "to",
          "type": "address"
        },
        {
          "indexed": false,
          "internalType": "uint256",
          "name": "value",
          "type": "uint256"
        }
      ],
      "name": "Transfer",
      "type": "event"
    },
    {
      "inputs": [
        {
          "internalType": "string",
          "name": "",
          "type": "string"
        }
      ],
      "name": "accountBalances",
      "outputs": [
        {
          "internalType": "uint256",
          "name": "",
          "type": "uint256"
        }
      ],
      "stateMutability": "view",
      "type": "function"
    },
    {
      "inputs": [],
      "name": "billingContract",
      "outputs": [
        {
          "internalType": "address payable",
          "name": "",
          "type": "address"
        }
      ],
      "stateMutability": "view",
      "type": "function"
    },
    {
      "inputs": [
        {
          "internalType": "address payable",
          "name": "_billingContract",
          "type": "address"
        }
      ],
      "name": "setBillingContract",
      "outputs": [],
      "stateMutability": "nonpayable",
      "type": "function"
    },
    {
      "inputs": [
        {
          "internalType": "string",
          "name": "account",
          "type": "string"
        }
      ],
      "name": "depositTo",
      "outputs": [],
      "stateMutability": "payable",
      "type": "function"
    },
    {
      "inputs": [
        {
          "internalType": "string",
          "name": "account",
          "type": "string"
        },
        {
          "internalType": "address payable",
          "name": "to",
          "type": "address"
        },
        {
          "internalType": "uint256",
          "name": "value",
          "type": "uint256"
        }
      ],
      "name": "transferFrom",
      "outputs": [],
      "stateMutability": "nonpayable",
      "type": "function"
    },
    {
      "inputs": [
        {
          "internalType": "string",
          "name": "account",
          "type": "string"
        },
        {
          "internalType": "uint256",
          "name": "payment",
          "type": "uint256"
        },
        {
          "internalType": "uint256",
          "name": "fee",
          "type": "uint256"
        }
      ],
      "name": "bill",
      "outputs": [],
      "stateMutability": "nonpayable",
      "type": "function"
    },
    {
      "inputs": [
        {
          "internalType": "string",
          "name": "account",
          "type": "string"
        },
        {
          "internalType": "uint256",
          "name": "value",
          "type": "uint256"
        }
      ],
      "name": "withdrawFrom",
      "outputs": [],
      "stateMutability": "nonpayable",
      "type": "function"
    }
  ],
  "bytecode": "0x608060405234801561001057600080fd5b506040516114033803806114038339818101604052604081101561003357600080fd5b81019080805190602001909291908051906020019092919050505080600160006101000a81548173ffffffffffffffffffffffffffffffffffffffff021916908373ffffffffffffffffffffffffffffffffffffffff160217905550816000806101000a81548173ffffffffffffffffffffffffffffffffffffffff021916908373ffffffffffffffffffffffffffffffffffffffff1602179055505050611323806100e06000396000f3fe6080604052600436106100705760003560e01c806322b2045f1161004e57806322b2045f146102dd57806386587e971461032e57806390affb5114610400578063dd1058621461044157610070565b806301d8361f146100755780631f951ffe14610125578063229e6d0e14610201575b600080fd5b34801561008157600080fd5b506101236004803603606081101561009857600080fd5b81019080803590602001906401000000008111156100b557600080fd5b8201836020820111156100c757600080fd5b803590602001918460018302840111640100000000831117156100e957600080fd5b9091929391929390803573ffffffffffffffffffffffffffffffffffffffff169060200190929190803590602001909291905050506104fc565b005b34801561013157600080fd5b506101eb6004803603602081101561014857600080fd5b810190808035906020019064010000000081111561016557600080fd5b82018360208201111561017757600080fd5b8035906020019184600183028401116401000000008311171561019957600080fd5b91908080601f016020809104026020016040519081016040528093929190818152602001838380828437600081840152601f19601f820116905080830192505050505050509192919290505050610870565b6040518082815260200191505060405180910390f35b34801561020d57600080fd5b506102db6004803603606081101561022457600080fd5b810190808035906020019064010000000081111561024157600080fd5b82018360208201111561025357600080fd5b8035906020019184600183028401116401000000008311171561027557600080fd5b91908080601f016020809104026020016040519081016040528093929190818152602001838380828437600081840152601f19601f820116905080830192505050505050509192919290803590602001909291908035906020019092919050505061089e565b005b3480156102e957600080fd5b5061032c6004803603602081101561030057600080fd5b81019080803573ffffffffffffffffffffffffffffffffffffffff169060200190929190505050610dde565b005b34801561033a57600080fd5b506103fe6004803603604081101561035157600080fd5b810190808035906020019064010000000081111561036e57600080fd5b82018360208201111561038057600080fd5b803590602001918460018302840111640100000000831117156103a257600080fd5b91908080601f016020809104026020016040519081016040528093929190818152602001838380828437600081840152601f19601f82011690508083019250505050505050919291929080359060200190929190505050610e22565b005b34801561040c57600080fd5b5061041561112b565b604051808273ffffffffffffffffffffffffffffffffffffffff16815260200191505060405180910390f35b6104fa6004803603602081101561045757600080fd5b810190808035906020019064010000000081111561047457600080fd5b82018360208201111561048657600080fd5b803590602001918460018302840111640100000000831117156104a857600080fd5b91908080601f016020809104026020016040519081016040528093929190818152602001838380828437600081840152601f19601f820116905080830192505050505050509192919290505050611151565b005b600260009054906101000a900473ffffffffffffffffffffffffffffffffffffffff1673ffffffffffffffffffffffffffffffffffffffff163373ffffffffffffffffffffffffffffffffffffffff16146105a2576040517f08c379a000000000000000000000000000000000000000000000000000000000815260040180806020018281038252602681526020018061128e6026913960400191505060405180910390fd5b60008054906101000a900473ffffffffffffffffffffffffffffffffffffffff1673ffffffffffffffffffffffffffffffffffffffff168273ffffffffffffffffffffffffffffffffffffffff1614806106495750600160009054906101000a900473ffffffffffffffffffffffffffffffffffffffff1673ffffffffffffffffffffffffffffffffffffffff168273ffffffffffffffffffffffffffffffffffffffff16145b61069e576040517f08c379a000000000000000000000000000000000000000000000000000000000815260040180806020018281038252603a8152602001806112b4603a913960400191505060405180910390fd5b80600385856040518083838082843780830192505050925050509081526020016040518091039020541015610764577fc61e9263ae4d583564d3db405994ce299ffa395fd6d18ca3c64bc29eaa28284384846003878760405180838380828437808301925050509250505090815260200160405180910390205460405180806020018381526020018281038252858582818152602001925080828437600081840152601f19601f82011690508083019250505094505050505060405180910390a161086a565b80600385856040518083838082843780830192505050925050509081526020016040518091039020600082825403925050819055508173ffffffffffffffffffffffffffffffffffffffff166108fc829081150290604051600060405180830381858888f193505050501580156107df573d6000803e3d6000fd5b507fdc8aa50227ab4aaa7a5079ad958198b22ff0c5f4594bd167f4ce5d5531df5ab38484338460405180806020018473ffffffffffffffffffffffffffffffffffffffff1681526020018381526020018281038252868682818152602001925080828437600081840152601f19601f8201169050808301925050509550505050505060405180910390a15b50505050565b6003818051602081018201805184825260208301602085012081835280955050505050506000915090505481565b600260009054906101000a900473ffffffffffffffffffffffffffffffffffffffff1673ffffffffffffffffffffffffffffffffffffffff163373ffffffffffffffffffffffffffffffffffffffff1614610944576040517f08c379a000000000000000000000000000000000000000000000000000000000815260040180806020018281038252602681526020018061128e6026913960400191505060405180910390fd5b8082016003846040518082805190602001908083835b6020831061097d578051825260208201915060208101905060208303925061095a565b6001836020036101000a0380198251168184511680821785525050505050509050019150509081526020016040518091039020541015610ac9577fc61e9263ae4d583564d3db405994ce299ffa395fd6d18ca3c64bc29eaa282843836003856040518082805190602001908083835b60208310610a0f57805182526020820191506020810190506020830392506109ec565b6001836020036101000a0380198251168184511680821785525050505050509050019150509081526020016040518091039020546040518080602001838152602001828103825284818151815260200191508051906020019080838360005b83811015610a89578082015181840152602081019050610a6e565b50505050905090810190601f168015610ab65780820380516001836020036101000a031916815260200191505b50935050505060405180910390a1610dd9565b8082016003846040518082805190602001908083835b60208310610b025780518252602082019150602081019050602083039250610adf565b6001836020036101000a03801982511681845116808217855250505050505090500191505090815260200160405180910390206000828254039250508190555060008054906101000a900473ffffffffffffffffffffffffffffffffffffffff1673ffffffffffffffffffffffffffffffffffffffff166108fc839081150290604051600060405180830381858888f19350505050158015610ba8573d6000803e3d6000fd5b507fdc8aa50227ab4aaa7a5079ad958198b22ff0c5f4594bd167f4ce5d5531df5ab38360008054906101000a900473ffffffffffffffffffffffffffffffffffffffff168460405180806020018473ffffffffffffffffffffffffffffffffffffffff168152602001838152602001828103825285818151815260200191508051906020019080838360005b83811015610c4f578082015181840152602081019050610c34565b50505050905090810190601f168015610c7c5780820380516001836020036101000a031916815260200191505b5094505050505060405180910390a1600160009054906101000a900473ffffffffffffffffffffffffffffffffffffffff1673ffffffffffffffffffffffffffffffffffffffff166108fc829081150290604051600060405180830381858888f19350505050158015610cf3573d6000803e3d6000fd5b507fdc8aa50227ab4aaa7a5079ad958198b22ff0c5f4594bd167f4ce5d5531df5ab383600160009054906101000a900473ffffffffffffffffffffffffffffffffffffffff168360405180806020018473ffffffffffffffffffffffffffffffffffffffff168152602001838152602001828103825285818151815260200191508051906020019080838360005b83811015610d9c578082015181840152602081019050610d81565b50505050905090810190601f168015610dc95780820380516001836020036101000a031916815260200191505b5094505050505060405180910390a15b505050565b80600260006101000a81548173ffffffffffffffffffffffffffffffffffffffff021916908373ffffffffffffffffffffffffffffffffffffffff16021790555050565b600260009054906101000a900473ffffffffffffffffffffffffffffffffffffffff1673ffffffffffffffffffffffffffffffffffffffff163373ffffffffffffffffffffffffffffffffffffffff1614610ec8576040517f08c379a000000000000000000000000000000000000000000000000000000000815260040180806020018281038252602681526020018061128e6026913960400191505060405180910390fd5b806003836040518082805190602001908083835b60208310610eff5780518252602082019150602081019050602083039250610edc565b6001836020036101000a0380198251168184511680821785525050505050509050019150509081526020016040518091039020541015610fa7576040517f08c379a000000000000000000000000000000000000000000000000000000000815260040180806020018281038252601f8152602001807f5468657265206973206e6f7420656e6f75676820746f2077697468647261770081525060200191505060405180910390fd5b806003836040518082805190602001908083835b60208310610fde5780518252602082019150602081019050602083039250610fbb565b6001836020036101000a0380198251168184511680821785525050505050509050019150509081526020016040518091039020600082825403925050819055503373ffffffffffffffffffffffffffffffffffffffff166108fc829081150290604051600060405180830381858888f19350505050158015611064573d6000803e3d6000fd5b507fdc8aa50227ab4aaa7a5079ad958198b22ff0c5f4594bd167f4ce5d5531df5ab382338360405180806020018473ffffffffffffffffffffffffffffffffffffffff168152602001838152602001828103825285818151815260200191508051906020019080838360005b838110156110eb5780820151818401526020810190506110d0565b50505050905090810190601f1680156111185780820380516001836020036101000a031916815260200191505b5094505050505060405180910390a15050565b600260009054906101000a900473ffffffffffffffffffffffffffffffffffffffff1681565b346003826040518082805190602001908083835b602083106111885780518252602082019150602081019050602083039250611165565b6001836020036101000a0380198251168184511680821785525050505050509050019150509081526020016040518091039020600082825401925050819055507f2d4b597935f3cd67fb2eebf1db4debc934cee5c7baa7153f980fdbeb2e74084e338234604051808473ffffffffffffffffffffffffffffffffffffffff16815260200180602001838152602001828103825284818151815260200191508051906020019080838360005b8381101561124e578082015181840152602081019050611233565b50505050905090810190601f16801561127b5780820380516001836020036101000a031916815260200191505b5094505050505060405180910390a15056fe4f6e6c79207468652062696c6c696e6720636f6e7472616374206d6179207769746864726177596f75206d6179206f6e6c79207472616e7366657220746f2074686520636f6e7472616374277320636c69656e74206f72206f70657261746f72a26469706673582212209e4171d7270793d970e8ffcc787d6110f04838f61e0c5ae609cc87e6d0b2790164736f6c63430007060033",
  "immutableReferences": {},
  "source": "// SPDX-License-Identifier: UNLICENSED\npragma solidity ^0.7.6;\n\ncontract BillableAccounts {\n  address payable companyTreasury;\n  address payable anyRateTreasury;\n  address payable public billingContract;\n\n  event Deposit(address from, string to, uint256 value);\n  event Transfer(string from, address to, uint256 value);\n  event InsufficientFunds(string account, uint256 funds);\n  event BillRequested(address requester);\n\n  mapping(string => uint256) public accountBalances; // Tracks who deposited how much value\n\n  constructor(address payable _companyTreasury, address payable _anyRateTreasury) {\n    anyRateTreasury = _anyRateTreasury;\n    companyTreasury = _companyTreasury;\n  }\n\n  function setBillingContract(address payable _billingContract) public {\n    billingContract = _billingContract;\n  }\n\n  // Send value to this contract on behalf of an account\n  function depositTo(string memory account) public payable {\n    accountBalances[account] += msg.value;\n    emit Deposit(msg.sender, account, msg.value);\n  }\n\n  // Message sender sends to a treasury\n  function transferFrom(string calldata account, address payable to, uint256 value) public {\n    require(msg.sender == billingContract, 'Only the billing contract may withdraw');\n    require(to == companyTreasury || to == anyRateTreasury, \"You may only transfer to the contract's client or operator\");\n    if(accountBalances[account] < value) {\n      emit InsufficientFunds(account, accountBalances[account]);\n    } else {\n      accountBalances[account] -= value;\n      to.transfer(value);\n      emit Transfer(account, msg.sender, value);\n    }\n  }\n\n  // Pay treasuries specified amounts\n  function bill(string memory account, uint256 payment, uint256 fee) public {\n    require(msg.sender == billingContract, 'Only the billing contract may withdraw');\n    if(accountBalances[account] < (payment + fee)) {\n      emit InsufficientFunds(account, accountBalances[account]);\n    } else {\n      accountBalances[account] -= (payment + fee);\n      companyTreasury.transfer(payment);\n      emit Transfer(account, companyTreasury, payment);\n      anyRateTreasury.transfer(fee);\n      emit Transfer(account, anyRateTreasury, fee);\n    }\n  }\n\n  // Message sender sends to self\n  function withdrawFrom(string memory account, uint256 value) public {\n    require(msg.sender == billingContract, 'Only the billing contract may withdraw');\n    require(accountBalances[account] >= value, 'There is not enough to withdraw');\n    accountBalances[account] -= value;\n    payable(msg.sender).transfer(value);\n    emit Transfer(account, msg.sender, value);\n  }\n}\n",
  "sourcePath": "/Users/macuser/Documents/Projects/Programming/ChainlinkHackathon/AnyRate/contracts/BillableAccounts.sol",
  "compiler": {
    "name": "solc",
    "version": "0.7.6+commit.7338295f.Emscripten.clang"
  },
  "schemaVersion": "3.3.4",
  "updatedAt": "2021-03-27T07:38:12.062Z",
  "devdoc": {
    "kind": "dev",
    "methods": {},
    "version": 1
  },
  "userdoc": {
    "kind": "user",
    "methods": {},
    "version": 1
  }
}