{
  "contractName": "Treasury",
  "abi": [
    {
      "inputs": [
        {
          "internalType": "address",
          "name": "_owner",
          "type": "address"
        }
      ],
      "stateMutability": "nonpayable",
      "type": "constructor"
    },
    {
      "inputs": [
        {
          "internalType": "address payable",
          "name": "to",
          "type": "address"
        },
        {
          "internalType": "uint256",
          "name": "value",
          "type": "uint256"
        }
      ],
      "name": "transferTo",
      "outputs": [],
      "stateMutability": "nonpayable",
      "type": "function"
    },
    {
      "inputs": [],
      "name": "withdrawAll",
      "outputs": [],
      "stateMutability": "nonpayable",
      "type": "function"
    }
  ],
  "bytecode": "0x608060405234801561001057600080fd5b506040516103e73803806103e78339818101604052602081101561003357600080fd5b8101908080519060200190929190505050806000806101000a81548173ffffffffffffffffffffffffffffffffffffffff021916908373ffffffffffffffffffffffffffffffffffffffff16021790555050610353806100946000396000f3fe608060405234801561001057600080fd5b50600436106100365760003560e01c80632ccb1b301461003b578063853828b614610089575b600080fd5b6100876004803603604081101561005157600080fd5b81019080803573ffffffffffffffffffffffffffffffffffffffff16906020019092919080359060200190929190505050610093565b005b6100916101db565b005b60008054906101000a900473ffffffffffffffffffffffffffffffffffffffff1673ffffffffffffffffffffffffffffffffffffffff163373ffffffffffffffffffffffffffffffffffffffff1614610137576040517f08c379a000000000000000000000000000000000000000000000000000000000815260040180806020018281038252602e8152602001806102c9602e913960400191505060405180910390fd5b80471015610190576040517f08c379a00000000000000000000000000000000000000000000000000000000081526004018080602001828103825260278152602001806102f76027913960400191505060405180910390fd5b8173ffffffffffffffffffffffffffffffffffffffff166108fc829081150290604051600060405180830381858888f193505050501580156101d6573d6000803e3d6000fd5b505050565b60008054906101000a900473ffffffffffffffffffffffffffffffffffffffff1673ffffffffffffffffffffffffffffffffffffffff163373ffffffffffffffffffffffffffffffffffffffff161461027f576040517f08c379a000000000000000000000000000000000000000000000000000000000815260040180806020018281038252602e8152602001806102c9602e913960400191505060405180910390fd5b3373ffffffffffffffffffffffffffffffffffffffff166108fc479081150290604051600060405180830381858888f193505050501580156102c5573d6000803e3d6000fd5b5056fe4f6e6c7920746865207472656173757279206f776e65722063616e2063616c6c20746869732066756e6374696f6e596f7520646f6e2774206861766520656e6f756768206c697175696469747920746f2073656e64a2646970667358221220bae6f1b51a0a67396878e1fcf6df8b528ffe08e45af3b11100ee3cdceb2284d564736f6c63430007060033",
  "immutableReferences": {},
  "source": "// SPDX-License-Identifier: UNLICENSED\npragma solidity ^0.7.6;\n\ncontract Treasury {\n  address owner; // Belongs to business or AnyRate\n\n  constructor(address _owner) {\n    owner = _owner;\n  }\n\n  // Withdraw some value\n  function transferTo(address payable to, uint256 value) public {\n    require(msg.sender == owner, 'Only the treasury owner can call this function');\n    require(address(this).balance >= value, \"You don't have enough liquidity to send\");\n\n    to.transfer(value);\n  }\n\n  // Withdraw all value\n  function withdrawAll() public {\n    require(msg.sender == owner, 'Only the treasury owner can call this function');\n\n    payable(msg.sender).transfer(address(this).balance);\n  }\n}\n",
  "sourcePath": "/Users/macuser/Documents/Projects/Programming/ChainlinkHackathon/AnyRate/contracts/Treasury.sol",
  "compiler": {
    "name": "solc",
    "version": "0.7.6+commit.7338295f.Emscripten.clang"
  },
  "schemaVersion": "3.3.4",
  "updatedAt": "2021-03-27T07:38:12.070Z",
  "devdoc": {
    "kind": "dev",
    "methods": {},
    "version": 1
  },
  "userdoc": {
    "kind": "user",
    "methods": {},
    "version": 1
  }
}